:020000040800F2
:1000000000000220B1450108FD800008FF800008C3
:10001000018100080381000805810008000000003C
:100020000000000000000000000000000781000840
:1000300009810008000000000B8100080D81000804
:100040000146010801460108014601080146010870
:100050000146010801460108014601080146010860
:100060000146010801460108014601080146010850
:10007000198100082981000801460108014601088C
:100080000146010801460108014601080146010830
:1000900039810008014601080146010801460108AE
:1000A0000146010801460108014601080146010810
:1000B0000146010801460108014601080146010800
:1000C00001460108014601080146010801460108F0
:1000D000014601084981000801460108014601085E
:1000E00001460108014601080146010801460108D0
:1000F00001460108014601080146010801460108C0
:1001000001460108014601080146010801460108AF
:1001100001460108014601085D8100080146010809
:10012000014601080146010801460108014601088F
:10013000014601080146010801460108014601087F
:10014000014601080146010801460108014601086F
:10015000014601080146010801460108014601085F
:10016000014601080146010801460108014601084F
:10017000014601080146010801460108014601083F
:10018000014601080146010801460108014601082F
:10019000014601080146010801460108014601081F
:1001A000014601080146010801460108014601080F
:1001B00001460108014601080146010801460108FF
:1001C00001460108014601080146010801460108EF
:0801D000014601080146010887
:100200000348044B834202D0034B03B118477047A5
:1002100080030020800300200000000005480649FC
:10022000091A891001EBD171491002D0034B03B1B7
:100230001847704780030020800300200000000062
:1002400010B5064C237843B9FFF7DAFF044B13B11E
:100250000448AFF300800123237010BD8003002009
:10026000000000003C46010808B5044B1BB10449DE
:100270000448AFF30080BDE80840CFE7000000006D
:10028000840300203C46010870B50D4E0D4D761BD1
:10029000B61006D00024013455F8043B9847A64216
:1002A000F9D1094E094D761B14F0C8F9B61006D0E5
:1002B0000024013455F8043B9847A642F9D170BD9B
:1002C0000CA701080CA7010810A701080CA701083A
:1002D000032A70B414D940EA0105AD0704460B4661
:1002E00022D11D682668AE421946204603F1040358
:1002F00004F1040418D1043A032A20461946F0D820
:10030000541E72B102780B789A4208BF641806D066
:100310000CE010F8012F11F8013F9A4206D1A142DA
:10032000F7D1002070BC7047541EEBE7D01A70BCA8
:10033000704700BF844641EA000313F003036DD108
:10034000403A41D351F8043B40F8043B51F8043B98
:1003500040F8043B51F8043B40F8043B51F8043B9F
:1003600040F8043B51F8043B40F8043B51F8043B8F
:1003700040F8043B51F8043B40F8043B51F8043B7F
:1003800040F8043B51F8043B40F8043B51F8043B6F
:1003900040F8043B51F8043B40F8043B51F8043B5F
:1003A00040F8043B51F8043B40F8043B51F8043B4F
:1003B00040F8043B51F8043B40F8043B51F8043B3F
:1003C00040F8043B403ABDD2303211D351F8043BDF
:1003D00040F8043B51F8043B40F8043B51F8043B1F
:1003E00040F8043B51F8043B40F8043B103AEDD28E
:1003F0000C3205D351F8043B40F8043B043AF9D2DF
:10040000043208D0D2071CBF11F8013B00F8013BB1
:1004100001D30B8803806046704700BF082A13D3BE
:100420008B078DD010F003038AD0C3F10403D21AD6
:10043000DB071CBF11F8013B00F8013B80D331F80A
:10044000023B20F8023B7BE7043AD9D3013A11F88A
:10045000013B00F8013BF9D20B7803704B784370F5
:100460008B788370604670478842F0B40DD98B1842
:1004700083420AD9841832B1224613F8014D02F89A
:10048000014D9942F9D1F0BC70470F2A49D940EA91
:1004900001039B0747D1A2F110031B0901F12007BB
:1004A00007EB031701F1100400F1100554F8106C6C
:1004B00045F8106C54F80C6C45F80C6C54F8086C4A
:1004C00045F8086C54F8046C45F8046C1034BC42D0
:1004D00005F11005EAD1013302F00F051B01032DD0
:1004E0001944034421D91F1F0E462C46043C56F8DC
:1004F00004CB47F804CF032CF8D82C1F24F00304B6
:1005000004342344214402F00302002ABBD0013BFF
:100510000A4411F8014B03F8014F9142F9D1F0BCA4
:1005200070470346F1E70346F1E72A46EDE700BFCF
:10053000F0B4860743D0541E002A3ED0CAB2034608
:1005400002E014F1FF3438D303F8012B9D07F8D1F2
:10055000032C2BD9CDB245EA05250F2C45EA0545DC
:1005600016D9A4F110073F0903F1200606EB071680
:1005700003F1100242E9045542E902551032B24239
:10058000F8D104F00F040137032C03EB07130DD946
:100590001E462246043A032A46F8045BFAD8221F74
:1005A00022F003020432134404F003042CB1C9B254
:1005B0001C4403F8011B9C42FBD1F0BC704714465D
:1005C0000346C5E72DE9F04757EC106B84B0002FC8
:1005D000894692461946DDE90D544EDB00230B7027
:1005E000662D32D0462D30D025F02003452B08BF94
:1005F00009F1010903AA02ABCDE9003202210C9BEB
:100600004A4647EC106B01F079FF672D80464CD1CC
:100610001AF0010F39D008EB09053046394600229F
:10062000002305F06FF930BB039B9D4206D93022B1
:10063000581C03901A70039BAB42F9D3A3EB080339
:100640004046236004B0BDE8F08703AA02ABCDE9C1
:10065000003203210C9B4A4647EC106B01F04EFF21
:10066000804600EB090598F80030302B0FD00C9B2A
:100670001B681D44D1E72B46E0E707F100434FF02C
:100680002D0C1F4681F800C0AAE7039BD6E7002285
:1006900000233046394605F035F90028E7D10C9A99
:1006A000C9F1010313601D44B7E7472DB0D0B2E78D
:1006B000F0B400290446BABF49422D232B2309294F
:1006C00004F8022B82B043702CDD0DF10706324690
:1006D000194F00E01A46A7FB0153DB0803EB830523
:1006E000A1EB450101F130051946092902F8015C29
:1006F00002F1FF33EEDC3031023AC9B2964203F820
:10070000011C0BD91A46254601E012F8011B05F819
:10071000011B9642F9D102AAD31A1C44201A02B036
:10072000F0BC704730313023041DC1708370201A33
:1007300002B0F0BC704700BFCDCCCCCC2DE9F04F5F
:100740008DB00C46DDF8588016461F46054603F06E
:10075000CBF903680693184600F0B2FC00230A9315
:10076000D8F800300790073323F0070393ED007BA0
:1007700008338DED047BD4F800A094F818B0C8F8C5
:100780000030DDE9042323F000499046104684ED53
:10079000127B49464FF0FF32AC4B05F0E5F80028DC
:1007A00053D1404649464FF0FF32A84B05F0BEF802
:1007B00000284AD1DDE904010022002305F0ACF84D
:1007C000002840F08A80A248A2492AF004020323AC
:1007D0002260BBF1470F8CBF8046884623614FF0F3
:1007E0000009009733460BAA2146284600F04CFA30
:1007F000013025D02368580500F1C980236942469D
:1008000031462846B84701301AD022680B98E36871
:1008100092075CD51A1A002A59DD04F119094FF024
:10082000000804E0E3680B981A1A42454FDD0123E3
:100830004A4631462846B847013008F10108F1D14F
:100840004FF0FF300DB0BDE8F08FDDE90401024646
:100850000B4605F089F8002868D16168481C4AF405
:10086000806200F09180BBF1670F3AD0BBF1470F77
:1008700037D0002322600AA8039309AB02900093AB
:10088000CDF804B00DF123039DED040B2846FFF7CE
:1008900099FE099B8046BBF1650F63D9BBF1660FDA
:1008A00000F0AE800A9A9A4200F3B4802268236175
:1008B000D20701D55A1C2261A3654FF000099DF8AB
:1008C0002330002B8DD02D2384F8433089E79842C4
:1008D000B8BF18460DB0BDE8F08F2D2384F8433023
:1008E00071E7002940F09E800121616000232260B1
:1008F0000AA8039309AB02900093CDF804B00DF160
:1009000023039DED040B2846FFF75CFEBBF1670F48
:100910008046099B02D0BBF1470FBCD1D91C1ADB22
:1009200062689A4217DB4FF0670BBBE7059B4A49A9
:100930004A4A002BBCBF2D2384F843302AF004031D
:1009400023600323BBF1470F8CBF88469046236189
:100950004FF0000945E7ABF1020B5FFA8BFBBBF1EF
:10096000650F9BD8013B19465A4604F15000099384
:10097000FFF79EFE0A9A1318012A8146236140F36D
:10098000A480013323619AE706216160AEE7BBF1E1
:10099000650F67D900220023D4E9120104F0B2FFE9
:1009A000002800F09F8001232D4A31462846B84791
:1009B00001303FF445AFDDE909239A4280F2D4804B
:1009C000DDE9062331462846B84701303FF438AF09
:1009D0000A9B012B7FF719AF04F11A094FF00008A9
:1009E00004E00A9B013B43457FF70FAF01234A46D2
:1009F00031462846B847013008F10108F1D11FE718
:100A0000002B626866DD2361002A59D001321A4446
:100A1000226151E7002BD4BFC3F1020101210A4436
:100A2000226149E7002322600AA8039309AB0290E0
:100A30000093CDF804B00DF123039DED040B28467F
:100A4000FFF7C0FD099B804668E700BFFFFFEF7F0F
:100A500084A6010880A601088CA6010888A60108C2
:100A600090A601080A9A012A40F383800123424696
:100A700031462846B84701303FF4E2AEDDE90623AF
:100A800031462846B847013008F101083FF4D8AE96
:100A9000DDF828A000220023D4E912010AF1FF3B6F
:100AA00004F030FF002849D15B46424631462846D3
:100AB000B84701303FF4C4AE4B4604F150029FE604
:100AC0002168C8077FF5F8AEA0E72268D2077FF556
:100AD000F6AE56E722B92168C90701D401229FE783
:100AE00002329DE7099B002B4CDC0123654A31460D
:100AF0002846B84701303FF4A3AE099B002B70D0C5
:100B0000DDE9062331462846B84701303FF498AE68
:100B1000099B002B33DA04F11A0A4FF0000903E0B5
:100B2000099B5B424B452ADD01235246314628464C
:100B3000B847013009F10109F2D181E6BAF1010F9C
:100B4000BADD04F11A0A4FF0000803E00A9B013BEA
:100B50004345B1DD0123524631462846B8470130AE
:100B600008F10108F2D16BE62268D1077FF54EAE9D
:100B700026E7D9073FF57AAF4246012396E742467A
:100B80000A9B3DE60A9AA36D9A42A8BF1A46002A1C
:100B9000924608DD1346314642462846B8470130A2
:100BA0003FF44EAEA36D2AEAEA7211469A1A002A61
:100BB000994621DD04F11A0BC1464FF0000AA04608
:100BC0000C4604E0D8F858301A1B524511DD0123B9
:100BD0005A4631462846B84701300AF1010AF1D198
:100BE0002EE60A9B002B8BD12268D3077FF50EAE31
:100BF00086E74446C8469946DDE909239A42C84437
:100C00003BDADDE9062331462846B84701303FF498
:100C100017AEDDE90923A3EB0909991A8945A8BF95
:100C20008946B9F1000F09DD42464B463146284658
:100C3000B84701303FF404AEDDE9092329EAE97839
:100C40009B1AA3EB0803002B7FF7DFAD04F11A0A10
:100C50004FF0000907E0DDE909239B1AA3EB080325
:100C60004B457FF7D2AD0123524631462846B8475F
:100C7000013009F10109EED1E2E52168C807C0D4CD
:100C8000C9E700BF90A601082DE9F0470C46914640
:100C90000A698968DDF820808A42B8BF0A46C9F827
:100CA000002094F8431006461F4611B10132C9F8DE
:100CB0000020236899065FD5D9F800200232C9F8D0
:100CC0000020236813F0060F19461DD1E1688A1A27
:100CD000002AD8BF194617DD04F1190A002505E0DE
:100CE000E368D9F800209B1AAB420CDD0123524681
:100CF00039463046C047013005F10105F0D14FF0CB
:100D0000FF30BDE8F087216894F84330003318BF06
:100D100001238A060AD5E1185A1C302081F84300C5
:100D2000224494F8451082F84310023304F1430240
:100D300039463046C0470130E1D02368D9F8005029
:100D4000216903F00603042BD4E902201AD08A4259
:100D50001FDD4FF00009521A91441A34002501E0BA
:100D60004D4516D00123224639463046C047013052
:100D700005F10105F4D1C2E713F0060F0CD1D9F843
:100D80000020A3E7401B8A4220EAE079E3DC002848
:100D9000E3DC0020BDE8F08794F84330003318BF4F
:100DA0000123C3E72DE9F0430C46097E85B06E2987
:100DB00006460C9D1746984604F1430C4AD00FD8BE
:100DC000632900F0FF8000F2BF8000294ED058292F
:100DD00040F0E18084F845102268DFF844E212E038
:100DE000732900F0C6807AD86F2900F0DB80702963
:100DF00040F0D180206840F0200222607823DFF8A4
:100E000024E284F845302B68191D1B6829601506FB
:100E100002D4500648BF9BB2D10744BF42F0200223
:100E20002260002B6DD1D4E9001284F84330002AEF
:100E300021F020032360A2607EDB21F024012160E9
:100E40001021002A79D1654608294ED0ACEB050364
:100E500023610EE02B6822686169181D2860150661
:100E60001B6802D4500600F1C78019600023654654
:100E70002361CDF800803B4603AA21463046FFF7A8
:100E800003FF013020D02A46236939463046C04747
:100E9000013019D022680398E368920719D51A1A0D
:100EA000002A16DD04F11909002504E0E36803981F
:100EB0001A1AAA420DDD01234A4639463046C04778
:100EC000013005F10105F1D14FF0FF3005B0BDE86B
:100ED000F0839842B8BF184605B0BDE8F083752985
:100EE00060D0782957D1226888E72368DB07ADD521
:100EF000626823699A42A9DC302305F8013C013D70
:100F0000A4E71021002284F843206268A260002A2E
:100F10002CDB206820F004002060002B91D0654677
:100F2000B3FBF1F201FB123013461EF8002005F866
:100F3000012D002BF4D187E710219EF8003084F8B2
:100F4000423004F142057FE7642901D0692922D1AA
:100F500020682B68010603F1040245D51B682A604E
:100F6000002B4BDBDFF8B8E00A21CEE7002BD6D10F
:100F7000E3E72B686268191D29601D680021284677
:100F800002F0EEFD002848D0401B60602061002385
:100F900084F843306DE7012384F84210236104F1A3
:100FA0004205F4E720682B6810F0800F03F104027B
:100FB00013D01B682A606F290CBF08210A21DFF8B3
:100FC00060E09FE72B681A68191D0123296084F8E7
:100FD0004220236104F14205D9E7400653BF1B6854
:100FE0002A601B882A60E6E7410653BF1B682A6017
:100FF000B3F900302A60B3E7198037E76268A2606E
:101000002D21002A84F84310C3F10003DFF810E01B
:101010004FF00A01BFF67EAF81E76068B6E700BF18
:1010200094A60108A8A601080CB470B59CB020AC29
:101030000B4E54F8042B0291234606916FF00045A5
:1010400002A901940795CDE9045603F021FC029B07
:1010500000221A701CB0BDE8704002B0704700BF9B
:101060000802FFFF0EB430B59CB01FAB0C4C0D4D09
:1010700053F8042B0193014602910691206802A9BE
:101080006FF000440794CDE9044503F001FC029B96
:1010900000221A701CB0BDE8304003B0704700BF9A
:1010A000000000200802FFFF000000000000000018
:1010B0000000000000000000000000000000000030
:1010C00090F800F06DE9024520F007016FF0000C88
:1010D00010F0070491F820F040F049804FF0000430
:1010E0006FF00700D1E9002391F840F000F108000B
:1010F00082FA4CF2A4FA8CF283FA4CF3A2FA8CF343
:101100004BBBD1E9022382FA4CF200F10800A4FAA9
:101110008CF283FA4CF3A2FA8CF3E3B9D1E90423FD
:1011200082FA4CF200F10800A4FA8CF283FA4CF334
:10113000A2FA8CF37BB9D1E9062301F1200182FAEE
:101140004CF200F10800A4FA8CF283FA4CF3A2FAF4
:101150008CF3002BC6D0002A04BF04301A4612BA02
:10116000B2FA82F2FDE8024500EBD2007047D1E905
:10117000002304F00305C4F100004FEAC50514F094
:10118000040F91F840F00CFA05F562EA05021CBF65
:1011900063EA050362464FF00004A9E7002A41D044
:1011A00040EA010313F00303F0B425D1032A23D945
:1011B00004680D68AC421FD1043A35D0A4F1013562
:1011C00025EA040414F0803F31D1071D0D1D0DE008
:1011D00057F8043B0E68A3F10134B34224EA030438
:1011E0000AD1043A20D014F0803F1DD1032A2946A9
:1011F000384605F10405EBD803780C789C4202F1DF
:10120000FF320CD182B114B90EE06AB17BB110F893
:10121000013F11F8014FA34202F1FF32F5D0181B34
:10122000F0BC7047104670470020F0BC704718466D
:10123000F6E700BF000000002DE9F04F914CA3B08D
:101240002468079488468146002120461D460024D4
:101250000023CDE9043406921E91FFF731FFCDF84B
:101260007480834643461A4613F8014B2D2C00F236
:10127000F080DFE814F05C00EE00EE00EE00EE001F
:10128000EE00EE00EE00EE00C100C100C100C100A2
:10129000C100EE00EE00EE00EE00EE00EE00EE000B
:1012A000EE00EE00EE00EE00EE00EE00EE00EE00CE
:1012B000EE00EE00EE00C100EE00EE00EE00EE00EB
:1012C000EE00EE00EE00EE00EE00EE006A00EE0032
:1012D000BE0007995A465046FFF760FF05460028B2
:1012E00040F03E831D9B03EB0B021D9213F80B4055
:1012F000302C2B4606D101321D921478302C03F18C
:101300000103F8D0A4F13102082A40F2CA854FF057
:10131000000B652C59465E465F464FF0010E4AD1E0
:10132000002B40F03481089A002A40F03081069B5F
:1013300013B1069BC3F800804FF0000A4FF0000B7A
:101340004BEC10AB23B0BDE8F08F00230A9302F101
:10135000010ACDF874A05478002CE8D0302C7DD050
:1013600000230893A4F13003DAB2092AB1D8002689
:1013700037463546504601301D90082D047807EB5E
:101380008702CABF06EB860603EB420703EB46065D
:10139000A4F13003DAB2092A05F10105EBD9079966
:1013A0005A46FFF7FBFE014640B3002319469E460E
:1013B000AB46652C68D0452C66D00022002D40F04D
:1013C000B5801BB9089B002B00F073824FF0000A18
:1013D0004FF0000B069A0AB11D9B13600A9B002B6D
:1013E000AED00BF100439B464BEC10AB23B0BDE8F5
:1013F000F08F01230A93AAE71D9334E71D9B03EBAB
:101400000B021D9213F80B40AB460346A4F13000CB
:10141000092800F221825A1C8646DDF874C0002893
:1014200000F0AA86012A114400F0A8862B4404E0AB
:1014300067009A42154600F09584082D05F10102D7
:1014400007EB8704F4DD102ADCBF06EB8606760086
:10145000EFE70023302C92460A9381D19AF80130AD
:10146000582B00F0FC81782B00F0F98153460133B2
:101470001D931C78302CFAD09A46002CA6D001235C
:1014800008936FE7C0470108002D3FF449AFDDF82E
:10149000748008F101021D9298F801402B2C00F095
:1014A000FD812D2C00F0028200220792A4F130026F
:1014B000092A6ED8302C05D11D9A01321D9214785C
:1014C000302CFAD0A4F13102082A3FF676AF1D9AEB
:1014D0000E92501C303C1D900B945478A4F1300CAB
:1014E000BCF1090F0FD80B9A01301D9002EB82025C
:1014F00004EB42020478A4F1300CBCF1090FA2F114
:101500003002F1D90B920E9A801A082800F33D841C
:101510000B9A44F61F608242A8BF02460798002833
:101520003FF44CAF5242002D3FF44BAF531A3846B4
:101530000B9303F005FFBBF1000F08BFAB46102D66
:101540002C46A8BF1024092DCDE9040125DC0B9BF6
:10155000002B19D00B9B40F39384162B00F3B2841D
:10156000394901EBC301D1E90001DDE9042303F0AE
:1015700061FF82468B462DE7344B0593250742BF1A
:10158000059B43F000430593DDE904AB22E700250A
:101590007DE7CDF87480002210E72B4B03EBC403EA
:1015A00053E9122303F046FFCDE90401304603F06E
:1015B000C7FE02460B46DDE9040103F085FD0F2D51
:1015C000CDE90401C3DD0B9B2C1B1C44002C40F314
:1015D000228314F00F030AD01B4901EBC301D1E9A8
:1015E0000001DDE9042303F025FFCDE9040134F017
:1015F0000F040DD0B4F59A7F40F30184134B05938B
:10160000002222230492DDE904ABC9F80030E1E6B0
:101610000023079300972B465A465146484602F04E
:101620007DFB1290002800F0A4810B9A0021002A73
:10163000C2F10003A8BF0B460E9322EAE2730F46E5
:1016400013938B46C9E000BFE04701080000F07F1C
:10165000D21A1F2AA4EB020400F34B820123934009
:101660000C93002310932544079B3444A6421D4449
:101670003346A8BF2346AB42A8BF2B46002B02DD52
:10168000E41AED1AF61A0E9B002B40F0C381002CD1
:1016900000F3D9810B9B002B00F3FD81002D00F39B
:1016A0000682002E08DD39463246484602F0DEFC4E
:1016B0000746002800F0F88142461E99484602F08D
:1016C00047FD8346002800F0EF810023C268C36015
:1016D00039460F9202F020FD0028C0F26F84059E6B
:1016E00000F032843946584602F092FE55EC104B19
:1016F00000224FF0804310EE100A294604F016F93C
:10170000002800F0DE810F9B002B00F0FA819FED96
:10171000B47BB74C0023CDE90C348DED107BB54D77
:10172000B54B06EA05049C4200F01482079B53B3B4
:10173000B4F1D46F27D8DDE91056ABA3D3E9002369
:101740002846314604F0F2F8C0B12846314604F08C
:1017500049F9002800F0D78303F0F2FDCDE910012C
:101760000F9B002B40F0CA83DDE9101202F1004309
:1017700018911993DDE91823CDE90C230D9B03F192
:10178000D6631B1B0D939DED080BDDE90C5602F093
:1017900055FD284653EC102B314603F04BFEDDE996
:1017A000082303F091FCCDE904010D46079B23B902
:1017B000904B2B409C4200F009821E99484602F053
:1017C00053FA4146484602F04FFA3946484602F07D
:1017D0004BFA5946484602F047FA129C484661685F
:1017E00002F00EFA8046002800F05E8122699DED2D
:1017F000047B0232920004F10C010C308DED087B69
:10180000FEF798FD9DED080B20AA1FA9484602F09F
:101810009DFD1E90002800F01F810121484602F026
:1018200019FB0746002800F03F811F9B002BC0F2E8
:101830005C810E9A139D9E180799209C6F4A5B1A33
:101840002344013B9342C4F13604FFF601AF002369
:10185000109301230C9306E74FF0010EA9E50A9AB5
:1018600002951EABCDE900321DA91FAB644A484664
:1018700001F0C0FD10F0070504463FF4A7AD062DAA
:1018800040F08782069A0AF10103002A3FF454AD22
:1018900013604FF0000A4FF0000B51E50022079251
:1018A00008F102021D9298F80240FFE5012207921A
:1018B000F6E7BEF1000F7FF43AAD493C252C3FF628
:1018C00036AD01A353F824F0AB1900082F1300081C
:1018D0002F1300082F1300082F1300088719000882
:1018E0002F1300082F1300082F1300082F130008D0
:1018F0002F1300082F1300082F1300082F130008C0
:101900002F1300082F1300082F1300082F130008AF
:101910002F1300082F1300082F1300082F1300089F
:101920002F1300082F1300082F1300082F1300088F
:101930002F1300082F1300082F1300082F1300087F
:101940002F1300082F130008AB1900082F130008ED
:101950002F1300082F1300082F1300088719000801
:101960004FF0000B5E465F465B4659465D46DE46DD
:101970001FE5204B0593129B04932223DDE904AB62
:10198000C9F8003026E51DA81E4901F0C3FF002854
:101990003FF4CDAC1D9B1B78282B00F067831A48C1
:1019A00003F0B6F85BEC10AB14E51DA8174901F085
:1019B000B1FF00283FF4BBAC1D9B1549013B1DA89E
:1019C0001D9301F0A7FF10B91D9B01331D93094C16
:1019D0000023CDE90434DDE904ABFBE4AFF3008080
:1019E000000000000000F03F0000C0FFFFFFDF41EB
:1019F0000000F03F0000F07F0000E07F02FCFFFFEE
:101A000070460108C8A60108E84E0108BCA60108F6
:101A1000C0A6010839461A46484602F0CBFA0746E6
:101A2000002841D001461E9A484602F01DFA0028BF
:101A30003AD00F901E99484602F016F90F9B1E935C
:101A4000002C7FF727AE22461E99484602F00EFB77
:101A50001E9000287FF41EAE5C46B74B0593002213
:101A60000492DDE904AB2223C9F800300146484660
:101A700002F0FAF84146484602F0F6F83946484680
:101A800002F0F2F81299484602F0EEF82146484674
:101A900002F0EAF89EE44146139A484602F08AFAB8
:101AA000804600287FF4FAAD5C461E98D5E7414693
:101AB0002A46484602F0DAFA804600287FF4F1AD63
:101AC000F2E79E4B20462946002203F0B3FC0F9B11
:101AD000CDE91001002B38D101F10043149015938A
:101AE000DDE91434CDE90C3419E6139A0E9ED51AAB
:101AF000A2E6934AD31A012202FA03F310930C923E
:101B0000B1E5049B002B40F0F480C6F31303002BD7
:101B100053D100228B4B2046294603F0FDFE0028BE
:101B200040F009820022854B2046294603F082FCC2
:101B30000A460146CDE9101202F100431A901B93A8
:101B4000DDE91A34CDE90C34E9E59DED107B8DED2E
:101B5000147BC5E7A6F1547305939DED047BDDE985
:101B60000C01B0EE470AF0EE670ACDE90C0102F075
:101B700065FBDDE90C0153EC102B03F05BFCDDE9A8
:101B8000042303F0A1FA01EA05030A46CDE90401A2
:101B9000DDE90801DFF8C0C105460E466345CDE921
:101BA000165640F2DB80684B994200F0B1816649DD
:101BB0004FF0FF33CDE90431FFE59FED577B634CD8
:101BC0000023CDE90C348DED107BA8E5DDE9100193
:101BD00004F09EF803F000FC0B460246DDE910011C
:101BE00003F070FA0F9BCDE90801002B6DD1049B27
:101BF000002B6AD1C5F31305002D66D148A3D3E9A4
:101C0000002303F089FE00283FF4D7AD5C461E9800
:101C1000DDE904AB2AE73FF4FBAC644214F00F02A9
:101C20000AD04B4B03EBC203DDE90401D3E90023E7
:101C300003F02AFDCDE9040124113FF4E9AC1F2C87
:101C40003ADC14F01003079340F00782002C40F3B5
:101C50000A82DDE904013F4E0023E20704D5D6E9FC
:101C6000002303F0E7FB0123641006F10806F4D11A
:101C7000002B40F08C82079B002B00F0F481DDE903
:101C80000412C2F30A53C3F16B03002B11460ADDA1
:101C90001F2B40F361820022342B049240F36482B4
:101CA0004FF05C73059300220023DDE9040103F08B
:101CB00029FE00283FF4AEAC2223C9F800304FF0D3
:101CC000000A4FF0000BFFF785BB17A3D3E90023F1
:101CD000DDE9080103F020FE002897D1DDE90801C5
:101CE00013A3D3E9002303F035FE00283FF465ADCC
:101CF0008CE7049B012B7FF460AF002E7FF45DAF77
:101D00005C462223C9F800301E984FF0000A4FF0BD
:101D1000000BABE6AFF30080000000000000F03FD6
:101D20009535A094FFFFCF3F9535A094FFFFDF3F8F
:101D300035E5AF350000E03F0000F07F0000E03FF8
:101D4000E2FBFFFF0000F03FFFFFEF7F0000F0BF6E
:101D5000E047010898460108FFFF9F7C02F1547597
:101D6000059523E5551C082A40F3A680102D00F3A5
:101D7000E08006EB860600EB460600230CF101022C
:101D80001D929CF80140FFF741BB44F61F62FFF72C
:101D9000C5BB1E9A3AB1352120A802F089FB4846FE
:101DA0001E9901F061FF013D042D3FF6E7AB01A351
:101DB00053F825F0E51D0008D91D00087915000825
:101DC000C91D0008E51D00084FF0FF336FF0004605
:101DD000CDE90436FFF7D2BB209B0493219B0593EA
:101DE000FFF7CCBBDDE920131F9A049102F23342C6
:101DF00023F4801343EA02530593FFF7BFBB24117A
:101E0000012CAB4B40F31A81DDE904011E46079318
:101E10000023984614F0010F08F101084FEA64040A
:101E200004D0D6E9002303F005FB0123012C06F1C1
:101E30000806EFD1002B40F0A781059B9D4EA3F132
:101E400054730593079B03EBC808D8E90001DDE94B
:101E5000042303F0EFFA984A01EA0203B342CDE902
:101E600004015CD8A2F15872934240F2E080934B97
:101E70000593002307934FF0FF330493FFF7CABB8A
:101E800013F11602FFF69FAB8D4AA2EBC302DDE908
:101E90000401D2E9002303F0F7FB82468B46FFF7EB
:101EA00099BADDF874A04FF0000BA4F1300E591C64
:101EB000D4465F465E46012507EB87070EEB4707D2
:101EC00000235BE70B9EC5F12503B342FFF67BAB16
:101ED0007B4CC5F10F0504EBC501751BDDE904233F
:101EE000D1E9000104EBC50403F0A4FAD4E900230E
:101EF00003F0A0FA82468B46FFF76CBA9DED107B8B
:101F00008DED187B36E49FED647B8DED107B27E42F
:101F1000DDF820A0BAF1FF3F7FF449AEC4E500230D
:101F2000049305922223DDE904ABC9F80030FFF7E2
:101F300051BA002322E79FED5A7B8DED1A7B9FED6E
:101F40005A7B8DED107BFBE50F995E4A5C4630466F
:101F5000DDE908ABC6F31303002973D0934200F008
:101F6000B780109B002B73D0034210D00F9B079AB1
:101F7000DDE90401002B00F0CB8012F042FB0246A9
:101F80000B465046594603F09FF882468B46079B06
:101F900093B14D4A0023CDE9163250465946DDE94A
:101FA000162303F047FA82468B4629B920B922232B
:101FB0001E98C9F8003059E51E9857E50F9B584602
:101FC0005C46DDE908AB002BE1D1DDE90412002914
:101FD000DDD1C2F31303002BD9D122F000431B0D36
:101FE0001B05B3F1D66FD2D9436913B90369012B2D
:101FF000CDDD21460122484602F038F83946044634
:1020000002F08AF80028C2DDDDE90401079B0A46D8
:10201000002B00F0928021F000431B0D1B05B3F153
:10202000D66F00F38A80B3F15C7FB2DC69E601F120
:102030005473059300230793FFF7ECBA07934FF00F
:102040000008FAE6002B8CD1049B002B89D1DBE73A
:102050000C9B049A13429AD088E76A23002C0793BA
:102060003FF7F7AD0BE6002307931CE61DA820AA57
:10207000164901F067FC05287FF491AC219B43F0E1
:10208000FF4343F4E0030593209B0493DDE904AB95
:10209000FFF7A0B9AFF30080000000000000F03FA0
:1020A000000000000000E0BF000000000000E03F72
:1020B000D04801080000A07C0000F07FFFFFEF7F08
:1020C000E0470108FFFF0F00000050398446010877
:1020D000079B049973B32F4B3340B3F1D46F29D8C6
:1020E0001B0DC3F16B034FF0FF3202FA03F3994269
:1020F0007FF437AF284B984243D0264B02461A4014
:1021000002F58013059300230493DDE904AB3EE759
:1021100012F077FA02460B465046594602F0D2FFBB
:102120000022002382468B4603F0ECFB00287FF45C
:10213000E8AD2CE74FF0FF33D9E7164B1340A3F57A
:1021400080136FEA13536FEA035305934FF0FF3385
:102150000493DDE904AB1AE74FF0FF3202FA03F310
:10216000049A1A4004929EE5203B4FF0FF3202FA97
:1021700003F30B40059396E51346FFE52A46013528
:10218000F1E50131B9D190E4CDE9040155E6CDE99D
:10219000040170E50000F07FFFFFEF7F014BFFF7C8
:1021A0004BB800BF6800002010B4044C13460A4628
:1021B000014620685DF8044BFFF73EB800000020A0
:1021C00010B4044C044B0A46014620685DF8044BE9
:1021D000FFF732B800000020680000202DE9F04130
:1021E000DFF8A88013462DED028B0A460146D8F889
:1021F0000000FFF721F855EC104B10EE102A2B468B
:1022000010EE100A294603F0AFFB50BB20462946CA
:1022100003F008FC08EE100ADFED197AB0EEC87A78
:10222000B4EE677AF1EE10FA15DD25F0004720468E
:1022300039464FF0FF32134B03F096FB38B9204676
:1022400039464FF0FF320F4B03F070FB18B1D8F84E
:10225000003022221A60B0EE480ABDEC028BBDE8C5
:10226000F081002D084804DA02F06CFCB1EE408ADF
:10227000F1E7BDEC028BBDE8F04102F063BC00BFAA
:10228000FFFF7F7FFFFFEF7FE84E01080000002087
:102290002DE9F041DFF8AC80264B0A462DED028B8C
:1022A0000146D8F80000FEF7C7FF55EC104B10EEC2
:1022B000102A2B4610EE100A294603F055FB50BB9E
:1022C0002046294603F0AEFB08EE100ADFED1A7A2D
:1022D000B0EEC87AB4EE677AF1EE10FA15DD25F0AB
:1022E0000047204639464FF0FF32144B03F03CFBC9
:1022F00038B9204639464FF0FF32104B03F016FB39
:1023000018B1D8F8003022221A60B0EE480ABDECAD
:10231000028BBDE8F081002D094804DA02F012FCBE
:10232000B1EE408AF1E7BDEC028BBDE8F04102F06E
:1023300009BC00BF68000020FFFF7F7FFFFFEF7F29
:10234000E84E01080000002070B5141E9AB0054642
:102350002CDB1A464FF4027300910491ADF80C3057
:1023600013D0013C4FF6FF761E9B029469460594FC
:10237000ADF80E6002F08CFA421C01DA8B232B6060
:10238000009B00221A701AB070BD1E9B02944FF67B
:10239000FF7669460594ADF80E6002F079FA431CA9
:1023A00001DB1AB070BD8B232B60FAE78B2303602F
:1023B0004FF0FF30F5E700BF10B582B0054C009339
:1023C000246813460A4601462046FFF7BDFF02B0C7
:1023D00010BD00BF000000202DE9F04F03690F6918
:1023E000BB4283B0C0F28680013F01F1140900F1C5
:1023F000140A59F827205AF82730BC000132B3FBE1
:10240000F2F80AEB0403009409EB040B0193B8F112
:10241000000F38D000252E46CE46D4465EF8044B39
:10242000DCF80030A2B208FB0255220C2C0C08FB91
:102430000242ADB2751B96B2C6EB134615FA83F392
:1024400006EB23469BB243EA0643F3454FEA1245A7
:102450004CF8043B4FEA2646E0D2009B5AF8033082
:102460008BB9019A131F9A450CD252F8043C4BB910
:10247000A2F1080302E01A68043B1AB99A4507F171
:10248000FF37F8D30761044601F046FE00282DDB34
:1024900008F101085546002359F8041B28688AB240
:1024A0009A1A0B0C12FA80F2C3EB104303EB22438F
:1024B00092B242EA0342CB4545F8042B4FEA23434C
:1024C000EAD25AF827200AEB87037AB91A1F9245F5
:1024D0000BD253F8042C42B9083B02E01A68043BC3
:1024E0001AB99A4507F1FF37F8D32761404603B080
:1024F000BDE8F08F002003B0BDE8F08F2DE9F04F6C
:1025000055EC104B9BB0466A0291814607920593A9
:10251000CDE90045002E00F0F180316851B17268BC
:102520004A60012393408B6001F09EFBD9F8243070
:1025300000221A60B5F10008249AB4BF01230023D9
:1025400013607D4BBCBF28F00048CDF8048033EA0F
:10255000080300F0A880DDE9006700220023304670
:10256000394603F0CFF9054678B1059A0123136087
:10257000259B002B00F0CC80704B259A03F1FF3B8C
:10258000136058461BB0BDE8F08F18AA19A947EC94
:10259000106B484601F0DAFE5FEA1854824640F0BC
:1025A000A280DDE918542C4404F23243202B40F37E
:1025B0004F84C3F1400308FA03F8009B04F2124071
:1025C00023FA00F048EA000002F0BAFE01230646B2
:1025D000013CA1F1F8770F93304639460022584B61
:1025E00002F070FD4EA3D3E9002302F023FF4EA3B7
:1025F000D3E9002302F068FD064620460F4602F0AC
:10260000AFFE4BA3D3E9002302F014FF02460B46B2
:102610003046394602F058FD06460F4603F0BAF937
:102620000022069000233046394603F075F9002851
:1026300040F08182069E162E00F26B82414B03EB26
:10264000C603D3E90001DDE9002303F083F9002884
:1026500000F00584731E069300230D932C1BB4F128
:10266000010800F1628200230893069B002BC0F250
:10267000538298440C9300230B93029B092B69D837
:10268000052BC4BF043B0293029BA3F10203CCBF02
:1026900000250125032B00F29F84DFE813F00204DC
:1026A000E3030D040605059A42F20F731360009BC5
:1026B00083B9C8F313036BB9259BDFF88CB0002BEB
:1026C0003FF45FAF0BF10803259A584613601BB027
:1026D000BDE8F08F259BDFF874B0002B3FF451AFBD
:1026E0000BF10303F0E7C7F3130343F07F570F9594
:1026F000A4F2FF3447F44017189D6DE7102001F055
:10270000FBF9C9F82400C0E901660660C66011E75C
:10271000DFF83CB058461BB0BDE8F08FAFF3008047
:1027200061436F63A787D23FB3C8608B288AC63FD7
:10273000FB799F501344D33F0000F07F91A601081E
:102740000000F83FE0470108CCA60108D8A6010820
:1027500090A601084FF0FF340125CDE9094500237B
:1027600002930793D9F824600E94002171604846C3
:1027700001F046FAD9F8243030600E2CD3F800B0BE
:1027800000F2F980002D00F0F6809DED007B0699A7
:1027900000298DED107B40F3DF839C4B01F00F028D
:1027A00003EBC20393ED007B0C11E2068DED007B81
:1027B00040F19984964BDDE91001D3E9082302F03A
:1027C00063FFCDE9120104F00F0403267CB1DDE9BB
:1027D00000018F4DE30704D5D5E9002302F02AFE5E
:1027E0000136641005F10805F4D1CDE90001DDE9F9
:1027F0000023DDE9120102F047FFCDE900010D9B46
:1028000043B10022834BDDE9000103F085F8002885
:1028100040F0FA84304602F0A3FDDDE9002302F027
:1028200009FE7D4B002202F04FFC099B0646A1F1F8
:102830005077002B00F01284069B1693099B12938D
:10284000DDE9000103F0A6F8129A704B03EBC20316
:1028500013ED027B00F130058DED147B02F080FD5D
:102860000B460246DDE90001CDE9006702F02AFCD3
:102870000A9BEDB206460F460BF10104002B00F057
:102880005384DDE914230020644902F0FDFEDDE9F4
:10289000002302F017FC8BF8005032463B46CDE98E
:1028A000000103F057F8002840F0FD8432463B4613
:1028B0000020584902F006FCDDE9002303F02CF863
:1028C000002840F0F884129A012A50D05A44CDF8DA
:1028D0005C80CDF848A0CDF850B09246CB46DDE9FB
:1028E00000890CE000204B4902F0ECFB42464B46CD
:1028F00003F012F8002840F0D984544530D0404607
:1029000049460022464B02F095FD0022444B80468A
:1029100089463046394602F08DFD0F46064603F0E3
:1029200039F8054602F01CFD02460B463046394692
:1029300002F0C8FB3035EDB242464B4604F8015B6D
:1029400006460F4602F0E8FF32463B460028C9D053
:10295000169BDDF848A00693D946DDF850B035E265
:10296000D946DDF85C80DDF848A0DDF850B0DDE93F
:102970001034CDE90034199B002BC0F2AD80069ACB
:102980000E2A00F3A980214B03EBC20393ED007BD9
:10299000079B002B8DED027BC0F2BA82DDE9006758
:1029A000DDE902233046394602F06EFE02F0F2FF06
:1029B000054602F0D5FCDDE9022302F03BFD0B46A3
:1029C00002463946304602F07DFB05F130038BF8B4
:1029D0000030099B012B06460F460BF1010452D033
:1029E00000220F4B02F026FD0022002306460F4670
:1029F00002F088FF002840F0E981CDF800A0CDF872
:102A00001C90DDF82480DDE9029A16E0E047010819
:102A1000D04801080000F03F00001C400000E03FEB
:102A20000000244002F006FD0022002306460F4667
:102A300002F068FF002840F03B834A465346304688
:102A4000394602F021FE02F0A5FF054602F088FC9F
:102A50004A46534602F0EEFC02460B4630463946E3
:102A600002F030FB05F1300C04F801CBA4EB0B0CA9
:102A7000E04506460F464FF00002C14BD2D1DDF8CB
:102A800000A0DDF81C9032463B463046394602F045
:102A90001BFBDDE9022306460F4602F05BFF58B937
:102AA000DDE902233046394602F02CFF002800F011
:102AB0008D81E90740F18A8114F8015C05E09B45AE
:102AC00000F0718313F8015C1C46392D04F1FF33CB
:102AD000F5D001351D7079E10A9A002A3BD0029A9F
:102AE000012A40F30882099B5F1E0B9BBB42C0F288
:102AF000E482DF1B099B002BC0F20983089A14466D
:102B00001A44984408920121484601F0A3F9054669
:102B100024E001230D93A1E5089A069BD21A5B429B
:102B20000B93002308920C93A7E5C4F101030893CB
:102B30004FF0000899E5DDF81880404602F010FCDF
:102B400032463B4602F0DEFE00287FF473AD08F10A
:102B5000FF3306936EE50B9F089C0A9D002C0CDD4D
:102B6000B8F1000F09DD4445089A2346A8BF434643
:102B7000D21A0892E41AA8EB03080B9B6BB10A9ACD
:102B8000002A00F08B82DE1B002F40F09881514616
:102B90003246484601F00EFA82460121484601F0CD
:102BA00059F90C9A0646002A40F02581029B012B18
:102BB00040F3BD830120404410F01F0000F0198154
:102BC000C0F12003042B40F3AD83C0F11C00089B2F
:102BD0000344089304448044089B002B05DD5146C0
:102BE0001A46484601F042FA8246B8F1000F05DD68
:102BF00031464246484601F039FA06460D9B002B05
:102C000077D1099B002B40F307820A9B002B00F031
:102C10008980002C00F368810C9B002B40F0C5815B
:102C2000A846009ACDF82CB002F001020A92099A47
:102C30000BF1FF331A445F460992B346594650469A
:102C4000FFF7CAFB29460446504601F065FA59468B
:102C500006464246484601F07BFA04F130030093F1
:102C6000C3680146002B40F0D2810890504601F025
:102C700053FA089A07901146484600F0F5FF079B63
:102C800033B9029A22B90A9B002B00F01783029BEA
:102C9000002EC0F21A8205D1029A1AB90A9A002AA5
:102CA00000F01382002B07F1010400F32382009B44
:102CB0003B70099BBB4200F02E82514600230A2242
:102CC000484600F0EDFF4545824629464FF0000397
:102CD0004FF00A02484600F0948100F0E1FF4146BF
:102CE000054600230A22484600F0DAFF27468046C0
:102CF000A4E73146504601F00FFA002881DA069F1A
:102D0000514600230A224846013F069700F0C8FFBB
:102D10000A9B8246002B40F0E9820E9B002B40F379
:102D2000F18209935C46DDF8248002E000F0B8FFF0
:102D3000824631465046FFF74FFB00F1300704F85A
:102D4000017BA4EB0B0343454FF00A024FF0000355
:102D500051464846EADB0023009702935146012280
:102D6000484601F083F93146824601F0D5F9002842
:102D700014F8012C14DC08D1009BDB0710D404E00C
:102D80000000244014F8022C1C46302A04F1FF33C2
:102D9000F8D00BE09B4500F04C8113F8012C1C4649
:102DA000392A04F1FF33F5D001321A703146484612
:102DB00000F05AFF55B1029921B1A94202D048460C
:102DC00000F052FF2946484600F04EFF5146484663
:102DD00000F04AFF0022069B2270059A013313601F
:102DE000259B002B3FF4CDAB58461C601BB0BDE8C3
:102DF000F08F1C20EBE60146484601F0DBF8029B11
:102E0000012B064600F3E580009B002B40F0E1809B
:102E1000DDE90012C2F31303002B40F0CE8122F053
:102E200000431B0D1B052BB1089B0133089308F1D0
:102E3000010801230C9A0C93002A3FF4BBAE3369BE
:102E400006EB8303186900F0B5FFC0F12000B2E67D
:102E5000C3F12008009B03FA08F0FFF7B5BB0D9003
:102E6000FFF7FCBB00230A93DDE9063213445C1C28
:102E7000012C27460E930994B8BF0127D9F8246086
:102E80000021172F71607FF672AC012204235B00D2
:102E900003F11400B842114602F10102F7D9716042
:102EA00065E400230A93079B002B40F3F2801F4642
:102EB0001C460E930993E1E701230A93F3E73A4690
:102EC0002946484601F076F85246014605464846EE
:102ED00000F0CAFF51460746484600F0C5FEBA4614
:102EE000002E3FF45AAE52E629462246484601F0EB
:102EF000BDF8054690E60F9A002A00F0608103F2C3
:102F00003343089A0B9F14461A4498440892FAE5F2
:102F1000099B002B3FF742AD40F0B88051EC170BF6
:102F20000022B34B02F086FADDE9002302F008FD2F
:102F3000099E3546002877D1069A31230132069240
:102F40008BF800300BF101043146484600F08CFE4E
:102F5000002D7FF437AF39E700F04381069B5C42D8
:102F6000A44B04F00F0203EBC203D3E90023DDE915
:102F7000100102F05FFA2411CDE9000100F0C781D1
:102F80009D4D00230226E70705D5D5E9002302F071
:102F900051FA01360123641005F10805F3D1002B25
:102FA0003FF42DACCDE9000129E46968484600F002
:102FB00027FE2B6902339A00044605F10C010C3000
:102FC000FDF7B8F921460122484601F04FF8804646
:102FD00027E600230C9332E7D9F8245000246C60D4
:102FE0002146484600F00CFED9F8243028604FF006
:102FF000FF32D3F800B00992012307940E920A938E
:10300000B9E400F04DFE27460546804616E64846E0
:1030100000F02AFE01233BE6029B022B7FF7F5AD71
:10302000099B002B00F0CF80079BDB4306935C4697
:103030008AE7069A3123013206928BF80030B5E612
:10304000304602F08DF9DDE9002302F0F3F90022A9
:103050006A4B02F039F80646A1F150770022644B22
:10306000DDE9000102F02EF832463B4604460D46EB
:1030700002F070FC002854D1324607F1004320468C
:10308000294602F049FC00283FF471AC0026354681
:10309000CAE7012409940794FFF764BB51460B9AD1
:1030A000484600F087FF824677E501230A93DBE676
:1030B000DDF800A0DDF81C9088E60B9B0C9AFB1A4B
:1030C0001A44CDE90B72002714E5002B02945E46EA
:1030D00007F10104DDF82CB000F3BA80009B0295E3
:1030E0003B70454662E69DED107B02268DED127B1E
:1030F000FFF76CBB009B392B5E46DDF82CB000F06F
:10310000B980009B029501333B7045464EE6DDE9F0
:1031100008329C1AF7E45E460295DDF82CB045466D
:103120001CE60026354607E7DDE91423DDE900014A
:1031300002F080F9129B8BF80050012BCDE90001C1
:1031400020D0129BCDF848805B44984600222C4B3F
:103150003046394602F06EF90F46064602F01AFC78
:10316000054602F0FDF8303502460B46304639463A
:1031700001F0A8FF04F8015B444506460F46E5D17F
:10318000DDF848801F4B0022DDE9000101F09CFFC3
:1031900032463B4602F0C0FB002870D0169B0693D7
:1031A00014F8015C91E430238BF80030069B14F88E
:1031B000015C013306935B468BE400233AE6189BDF
:1031C000C3F136039DE631460522484600F068FD0E
:1031D00001460646504600F09FFF00283FF7ACAE80
:1031E00022E79DED107B02268DED007BFFF707BBEC
:1031F00000001440E0470108D048010800001C40CE
:10320000000024400000E03F099B002B3FF418AF72
:103210000E9C002C7FF7ABAB0022474BDDE9000191
:1032200002F008F9CDE90001701C02F099F8DDE91F
:10323000002302F0FFF8414B002201F045FF069BFE
:103240001294013B0646A1F150771693FFF7F8BAA6
:1032500051460122484600F009FF3146824600F0FF
:103260005BFF00283BDD009B392B03D0029B3133F1
:10327000009333E7392202953A70454690E5DDE93F
:10328000002300202E4901F01DFF32463B4602F08C
:1032900061FB10B9FFF76BBB144614F8013C302BEF
:1032A00004F1FF32F8D0169B06938FE5D946DDF87E
:1032B00048A0DDF850B0169B069306E4009B392B1E
:1032C0002146324607F101045E46DDF82CB0D1D02C
:1032D000002A7FF703AF0B4631330093FEE67FF4FD
:1032E000FDAE009BDA077FF5F9AEBCE72946002367
:1032F0000A22484600F0D4FC0E9B002B054609DD4F
:10330000099386E4029B022B09DC0E9B09E5022649
:10331000FFF775BA029B022B01DC0E9BF0E70E9BB8
:1033200009937DE63FF458ACC0F13C004FE4009BAC
:10333000002B3FF46DAD3DE40000244000001C4034
:103340000000E03F2DE9F04104694B119C422EDD65
:1033500000F1140C11F01F0167460CEB84040CEB18
:1033600083052AD05CF823202E1DB44222FA01F2F4
:10337000C1F1200813D900F1100E336803FA08F3E5
:1033800013434EF8043F56F8042BA64222FA01F2EA
:10339000F3D3631B053B23F0030304339C44CCF8B5
:1033A000002012B30CF10403DA1B921018E0002382
:1033B000036100234361BDE8F081AC42F7D900F11D
:1033C00010022B4653F8041B42F8041F9C42F9D804
:1033D000EA43224422F0030204320CEB020392106F
:1033E000BB420261E5D0BDE8F0816346DA1B921072
:1033F000F6E700BF2DE9F04FBC4C8DB02468079074
:103400008946204604920A930594FDF759FED9F89F
:103410000030039021189A7811F8011C0191302A8C
:1034200040F0898103334FF000081C4613F8012B4C
:10343000302A08F10108F8D0AD4EB35C002B00F043
:10344000F08023784FF0000AF35C5546274623B1FD
:1034500017F8013FF35C002BFAD1039A059938461F
:10346000FDF79CFE002800F090803B78002D40F096
:103470009080502B029500F09280702B00F08F808E
:103480003D46C9F80070BAF1000F40F0B7802B1B21
:10349000013B072B514604DD5B10072B01F10101B5
:1034A000FADC079800F0ACFB03461433AC420690FC
:1034B000089380F0B1819B46039B4FF00008C3F155
:1034C0000103C146099311E0B8F1200F00F09F807D
:1034D000424608F1040815F8013CF35C554603F038
:1034E0000F039340A54249EA030918D915F8013C96
:1034F000019A934205F1FF3A0BF10407E4D1099BCD
:103500005344A342E0D31846039A05990B93FDF761
:1035100045FE0B9B0028D7D11D46A542E6D8089B47
:10352000CBF80090FF1A069BBF101F61484600F0C1
:1035300041FC049B7F011E683F1AB74200F3DC8008
:10354000C0F210810025049B029A9B689342C0F24E
:1035500034810498029A4368934273DD9C1AA64210
:1035600000F3A480C268022A00F08D81032A00F0D3
:103570008581012A00F06081DDE9061000F074FB0E
:10358000169A0023136050243DE0002D00F0DC80EB
:103590003B78ED1BAA00502B02927FF46EAF7B7834
:1035A0002B2B00F0A7802D2B67D07A1C0025F35C15
:1035B000591E18293FF664AF5178715C481E1828CF
:1035C000A3F1100302F101020BD812F8010F03EB73
:1035D000830301EB4303315C481E1828A3F1100359
:1035E000F3D905B15B4202993D4619441746029151
:1035F000C9F80070BAF1000F3FF449AFB8F1000FFD
:103600000CBF0624002420460DB0BDE8F08F5B46B9
:10361000002243F8089BBB4691461F464FF0040822
:1036200059E7039D05992A462046FDF7B7FD40B3AB
:1036300022782746502A00F08280702A7FD0C9F86D
:103640000070DBE7012465B1049BDB68022B00F00E
:10365000BD80032B00F0BE80012B00F0068144F0FA
:103660001004169B1A46069B13600A9B1A46029B7F
:10367000136020460DB0BDE8F08F0125BB78BA1C61
:1036800095E7625DB35C6719002BD3D0302A3C46C6
:1036900004D114F8013F302BFBD0F35CB3FA83FA6A
:1036A0003D464FEA5A1A4FF00108CFE6671E002D3B
:1036B00040F0BA80002F40F0B9807B11089A06983C
:1036C00052F8232007F01F07012303FA07F71742D8
:1036D000214618BF45F00205FFF734FE049B5B68E6
:1036E0000293361B0224002DBBD0ADE7C047010872
:1036F000C04601080025C1E7BF1B3946069800F007
:10370000FBFE054678B17A1E5111089802F01F039E
:1037100050F82110012505FA03F30B4203D0AA4209
:1037200000F3B5800225029B06983B44394602937C
:10373000FFF708FE07E79C1C4FF000087CE600231B
:1037400002934FF0010A2AE703997B5CF25C7D1833
:103750002F46002A3FF41DAF17F8013FF25C002A04
:10376000FAD116E7F71B069907983A4600F07EFC57
:10377000029B0690DB1B029303461433089300253B
:10378000E1E6069B9B689D4280F291802B4606985D
:1037900000EB830201210133022C036151617FD0D0
:1037A0009D4234DA01210698FFF7CCFD049B029A72
:1037B0009B680132934202922CDADDE9061000F098
:1037C00053FA169A00231360A3241CE7179BC3F136
:1037D00001031793179B002B3FF441AF069BDDF8C5
:1037E00020C01D69AF000CEB07006346002103E019
:1037F000984243F8041CC4D99E4653F8042BB2F1F6
:10380000FF3FF5D00132022CCEF8002048D016F050
:103810001F0668D1212424E7069BDDF820B003F1C0
:1038200018074FF000097AE6012546E73946069861
:1038300000F062FE054640E7A6427FF49DAE012EF1
:1038400008DD711E069800F057FE00283FF494AE84
:10385000049B5B680A990B60069B089901221A6118
:103860000A60169A62241360CDE6AA077FF5F7AEC8
:10387000089B1B681D43EB07B0D4F0E6179A002A9B
:103880003FF47AAEE6E7179A002AE3D074E6B91E51
:10389000069800F031FE00283FF444AF032542E7CC
:1038A000049B1B68013BB34227D02224D9E6069B28
:1038B000DDF81C9059684846013100F0A1F90699DD
:1038C0000B69023380469A000C310C30FCF732FD54
:1038D0000699484600F0C8F9CDF8188008F1140C94
:1038E000D8F8103053E76744C6F1200657F8040CA7
:1038F00000F060FAB0428DDA54E7731106F01F064B
:103900005CF823200123B340134214BF2124222456
:10391000A7E600BF30B40468013408E014F8013BA6
:10392000A3F14105192D98BF2033934207D111F817
:10393000012B002AF2D10460012030BC7047002026
:1039400030BC70472DE9F04F0B68DFF894E1591156
:1039500002EB810985B013F01F0318BF09F10409B8
:1039600001900393002349F8043C98469A461C466C
:10397000019BCDF808901B685F78A9F10406B44656
:103980003146B3469146581CDFB11EF80750002D52
:1039900040D1202F5BD854450EDD614502D2B8F1ED
:1039A000070F5EDD49454ED90023A1F1040C41F813
:1039B000043CA2466146984603465F78581C002F97
:1039C000E3D14A465E46DDF80890002C45D06145BB
:1039D00002D2B8F1070F70DD914259D9134651F860
:1039E000040B43F8040B8E42F9D2002143F8041B68
:1039F0009E42FBD259F8041C21B145E056F8043D23
:103A0000002B41D1B242F9D101230520136005B04A
:103A1000BDE8F08F08F10108B8F1080F04F10104C6
:103A200007DC0A68120105F00F0515430D60034617
:103A3000C3E74945C0D9002341F8043C1A4604397C
:103A40004FF00108EFE74FF008080346B5E7292FCC
:103A50004A465E46DDF8089029D0042005B0BDE84E
:103A6000F08FC8F108039B000A68C3F120080D46D7
:103A70006F6807FA08F6164327FA03F22E6045F836
:103A8000042FAC45F4D88DE7052005B0BDE8F08FD4
:103A9000039B59F8041C002BAED0C3F120034FF058
:103AA000FF3020FA03F3194049F8041CA4E70198F9
:103AB00002330360002C8AD1CFE7C8F108039B00D2
:103AC0000D68C3F1200E0846476807FA0EF42C4330
:103AD00027FA03F5046040F8045F8445F4D87BE7D7
:103AE000C0460108F0307047004870475801002078
:103AF0000048704758010020024B0146186800F04A
:103B000089BD00BF00000020024B0146186800F08C
:103B10002DBD00BF0000002010B4034CD4F8E440D9
:103B2000A4465DF8044B60476800002082B049B1AC
:103B30005AB16BB113780B601278101C18BF0120BA
:103B400002B0704701A9002AF3D1104602B07047B5
:103B50006FF00100F4E700BF00000000000000006B
:103B600001F0FF01102A2BDB10F0070F08D010F82E
:103B7000013B013A8B422DD010F0070F42B3F6D132
:103B8000F0B441EA012141EA014122F007047FF04B
:103B900000070023F0E80256083C85EA010586EAA2
:103BA000010685FA47F5A3FA87F586FA47F6A5FADE
:103BB00087F68EB9EED1F0BC01F0FF0102F00702EA
:103BC00032B110F8013B013A83EA010313B1F8D195
:103BD0000020704701387047002D06BF3546033876
:103BE000073815F0010F07D1013015F4807F02BFAF
:103BF000013015F4C03F0130F0BC0138704700BF00
:103C000070B5446A06460D465CB1E3689BB153F853
:103C10002500E0B1026843F825200023C0E9033302
:103C200070BD1020FFF768FF0023C0E90133044690
:103C300070620360C36021220421304600F088FCDA
:103C4000736AE060DB68002BE1D1002070BD0121C8
:103C500001FA05F4621D3046920000F079FC00285C
:103C6000F3D0C0E90154D8E730B5456A83B00446C3
:103C700055B139B1636A4A68DB6853F822000860BD
:103C800043F8221003B030BD10200191FFF734FF3C
:103C900001996062C0E901550560C560E9E700BFB0
:103CA000F0B50C6983B00D46064601F1140C0027EF
:103CB000DCF8000081B202FB0133010C180C02FB9E
:103CC00001019BB2013703EB0143BC424CF8043BBA
:103CD0004FEA1143ECDC3BB1AA68A24207DD05EBD9
:103CE0008402013453612C61284603B0F0BD696839
:103CF000019301313046FFF783FF2A69023205F153
:103D00000C01074692000C30FCF714FB29463046A4
:103D1000FFF7AAFF3D46019BE1E700BF2DE9F8430D
:103D2000234C089D1E46083384FB034CDB17C3EB72
:103D30006C0CBCF1010F07460C46904635DD0123A3
:103D400000215B009C4501F10101FADC3846FFF7D8
:103D500057FF0123B8F1090FC0E9043521DD04F153
:103D600009094D46444415F8013B0146303B0A22FF
:103D70003846FFF795FFAC42F5D109EB0804083C43
:103D800046450CDDA6EB0806264414F8013B014627
:103D9000303B0A223846FFF783FFA642F5D1BDE843
:103DA000F8830A344FF00908EAE70021CEE700BFA4
:103DB000398EE338020C12040346C2B90304102002
:103DC00013F07F4F04BF1B02083013F0704F04BF85
:103DD0001B01043013F0404F04BF9B000230002B46
:103DE00004DB5B0001D501307047202070470020C4
:103DF000E6E700BF036813F00702014607D0DA07C1
:103E00001FD498071FD55B080B600120704798B23C
:103E1000A0B1104613F0FF0F04BF1B0A08301A07A9
:103E200004BF1B0904309A0704BF9B080230DA075D
:103E300002D45B080BD001300B6070471B0C1020C4
:103E4000E8E7002070479B080B60022070472020A5
:103E5000704700BF10B50C460121FFF7D1FE0122CB
:103E6000C0E9042410BD00BF2DE9F04F0E691469AC
:103E7000A64283B00F46154604DA32462F46264640
:103E80000D461446D7E9011306EB04084345B8BFB5
:103E90000131FFF7B5FE00F1140909EB880EF14579
:103EA000009005D24B46002243F8042B9E45FBD8D8
:103EB00005F1140A0AEB840407F11403A24503EB8D
:103EC000860C61D2641B153C24F00304CDF804E099
:103ED000A24405F110029E4605E02D0C2BD192451F
:103EE00009F104094ED052F8045F1FFA85FBBBF1BB
:103EF000000FF2D077464E46002000E0264657F8E5
:103F0000041B34688BB2A5B2090C240C0BFB0353C1
:103F100003440BFB014000EB134034469BB243EAE1
:103F20000043BC454FEA104044F8043BE6D87060BB
:103F300015682D0CD3D0D9F8003076461846CB46FC
:103F4000002100E0A3463488000C05FB0400014476
:103F50009BB25C4643EA014344F8043B56F8043BF9
:103F6000DBF804001B0C87B205FB037303EB114362
:103F7000B4454FEA1341E5D89245CBF8043009F136
:103F80000409B0D1DDF804E0B8F1000F0BDD5EF8F4
:103F9000043CAEF1040E1BB105E05EF8043D13B91C
:103FA000B8F10108F9D10098C0F8108003B0BDE85D
:103FB000F08F00BF2DE9F04312F0030383B01446E5
:103FC00007462DD10E46A4101CD07B6A8BB39D688A
:103FD000002D38D0E3074FF0000906D4641011D04B
:103FE000286898B10546E307F8D531462A46384691
:103FF000FFF73AFF314680463846FFF735FE64103A
:104000004646EDD1304603B0BDE8F0832A46294646
:104010003846FFF729FF2860C0F800900546E2E720
:10402000013B114A52F823200023FFF739FE0646D0
:10403000C9E71020FFF760FD0022C0E90122034616
:1040400078620260C260012138460193FFF7D8FD13
:1040500040F27122019B426101210022016105466B
:1040600098600260B6E700BFD04701082DE9F0472D
:1040700091460A690D464FEA691AD1E901130AEB24
:10408000020808F101049C42074604DD5B009C42E3
:1040900001F10101FADC3846FFF7B2FDBAF1000F79
:1040A000064600F1140335DD03EB8A01002243F8D4
:1040B000042B8B42FBD1286905F1140319F01F0969
:1040C00003EB800C1ED0C9F1200E002200E0514607
:1040D00018688A4600FA09F010434AF8040B53F8AE
:1040E000042B9C4522FA0EF2F1D84A600AB108F17D
:1040F0000204013C384634612946FFF7B5FD3046DD
:10410000BDE8F087043953F8042B41F8042F9C458F
:10411000F9D8EEE71946CEE730B40B6905460069D9
:10412000C01A0FD19B001435143119442B4401E0FF
:104130009D4207D253F8044D51F8042D9442F7D014
:1041400002D3012030BC70474FF0FF30FAE700BFC8
:104150002DE9F04113690D69ED1A002D0E469046C8
:1041600001F1140402F1140714D19B00E2183B443E
:1041700001E0A24259D952F804CD53F8041D8C45F0
:10418000F7D009D2224633463C4646461746984663
:10419000012501E0F6DB00257168FFF731FDD8F855
:1041A00010303669C56007EB830EBC4600F114057C
:1041B00004EB860700235CF8041B54F8048B8AB2D6
:1041C00013FA88F3090C9A1AC1EB184303EB224344
:1041D00092B242EA0342E64545F8042B4FEA2343F4
:1041E000E9D8A74217D9AE46A4465CF8042B13FAC7
:1041F00082F3191401EB12419BB243EA0142674575
:104200004EF8042B4FEA2143EFD8E443274427F02C
:10421000030704373D44043D22B955F8043D013EEF
:10422000002BFAD00661BDE8F0810021FFF7E8FC21
:1042300001220023C0E90423BDE8F081134B10EEF6
:10424000902A1A40A2F15073002B04DD0020194679
:1042500041EC100B70475B421B15132B0DDD143B1B
:104260001E2BDDBFC3F11F03012202FA03F301235A
:104270000021184641EC100B70474FF4002200203B
:1042800042FA03F141EC100B704700BF0000F07FD1
:10429000F8B5046900F1140606EB840454F8045CD4
:1042A0002846FFF787FDC0F120030A280B60A4F120
:1042B000040117DC8E42C0F10B0738BF54F8081C0C
:1042C00025FA07FC00F115004CF07F5334BFF9408C
:1042D000002105FA00F043F4401340EA010243ECE8
:1042E000102BF8BD8E42A0F10B001CD254F8081C14
:1042F000D8B18540C0F1200C45F07F55A4F10807E6
:1043000045F4401521FA0CFEBE4201FA00F045EAE0
:104310000E0304D254F80C1C21FA0CF10843024697
:1043200043EC102BF8BD40B9014645F07F5343F4F0
:1043300040130A4643EC102BF8BD05FA00F040F09C
:104340007F53002043F440130246E9E72DE9F04390
:104350000F4683B0012155EC104B1646FFF750FC79
:10436000C5F30A588146C5F31303B8F1000F01D015
:1043700043F48013002C019324D002A840F8084D88
:10438000FFF738FD002836D1DDE90023C9F81420F5
:10439000002B0CBF01210221C9F81830C9F81010F8
:1043A000B8F1000F1BD109EB8103A0F23240386055
:1043B0001869FFF7FFFCC0EB41103060484603B0BE
:1043C000BDE8F08301A8FFF715FD019BC9F8143083
:1043D00001212030C9F81010B8F1000FE3D0A8F285
:1043E000334808EB0003C0F135003B6030604846BD
:1043F00003B0BDE8F083DDE90013C0F1200203FA49
:1044000002F20A43C3400193C9F81420C0E700BF79
:104410002DE9F04383B0884669468146FFF738FFAF
:10442000404601A955EC104BFFF732FFDDE90013C0
:10443000D9F81020D8F81000CB1A121A03EB421347
:10444000002B57EC106B0DDD05EB03594D46324642
:104450003B462046294601F017F941EC100B03B00A
:10446000BDE8F083C3EB033307EB03510F46EEE7E0
:104470001728D0B504460CDD0A490B4F0020002652
:1044800032463B4600F0D6FF013CF9D141EC100B1F
:10449000D0BD064B03EBC004D4E9040141EC100B82
:1044A000D0BD00BF0000F03F00002440D04701080D
:1044B00070B414694D1E02F1140303EB84016D11F5
:1044C00001358B4200EB85040CD2051F53F8046BB9
:1044D00045F8046F9942F9D88B1A153B23F0030372
:1044E00004331844844204D9002340F8043B844236
:1044F000FBD870BC704700BF036910B44C11A342D5
:1045000000F1140210DA02EB83039A421ED253F830
:10451000040C043B18B115E053F8041D91B99A42FC
:10452000FAD35DF8044B704702EB8403EDDD11F024
:104530001F01EAD052F8244024FA01F000FA01F1F8
:104540008C42E2D001205DF8044B70470020E8E780
:1045500038B502FB01F4214600F05CF8054618B1BD
:1045600022460021FBF7E4FF284638BD79B338B571
:1045700051F8043C0C1F002BB8BFE418054600F0AE
:10458000FFFA234B1A682AB1A2420DD9216860189C
:10459000824230D0626028461C60BDE8384000F09E
:1045A000F1BAA34203D81A465368002BF9D1116817
:1045B0005018A04213D00BD821686018834220D035
:1045C000636054602846BDE8384000F0DBBA7047AD
:1045D0000C232B602846BDE8384000F0D3BA206891
:1045E0000144501883421160ECD1D3E90003014427
:1045F00053601160E6E7D2E9000201446260216085
:10460000C9E7D3E900030144636021605460D9E73E
:104610009C030020F8B5CD1C25F0030508350C2DB2
:1046200038BF0C25002D06463ADBA94238D82A4F60
:1046300000F0A6FA3A6852B113685B1B04D433E069
:1046400023685B1B25D522465468002CF8D1796875
:1046500000293BD02946304600F062FA431C2AD09C
:10466000C41C24F00304A04205D0211A304600F0F7
:1046700057FA01301FD02560304600F083FA04F16C
:104680000B0020F00700231DC31A01D05A42E2504C
:10469000F8BD0B2B0BD8A24215D063685360EBE733
:1046A0000C2333600020F8BD0B2B0BD9144623607C
:1046B0001C442560E0E70C233046336000F062FACA
:1046C0000020F8BD54683C601446D5E7304600F041
:1046D00027FA7860BEE700BF9C0300202DE9F04771
:1046E0008E681D46AE420C460B68174627D880469A
:1046F000888910F4906F31D0D1E9041606EB460694
:10470000A3EB010906EBD6766B1C76104B44B34243
:10471000324684BF1E463246430521D511464046E7
:10472000FFF778FF824678B34A462169FBF702FE1D
:10473000A38923F4906343F08003A38115E02E4600
:1047400018462A463946FBF78FFEA2682368961B57
:104750002B44A66023600020BDE8F0873546EFE7D4
:10476000404600F011FA824650B1A6EB09020AEB6E
:1047700009036661C4F810A02360A2602E46DFE73B
:1047800021694046FFF7F2FE0C23C8F80030A389E8
:1047900043F04003A3814FF0FF30DDE72DE9F04FF8
:1047A000936883B09046002B6CD017688D68824662
:1047B0000C460868083742E0A38913F4906F2DD0A7
:1047C000D4E9041505EB4505A0EB010B05EBD57508
:1047D000701C6D105844A8422A4684BF05462A46DC
:1047E0005B0536D511465046FFF714FF00283AD036
:1047F0005A4621690190FBF79DFDA289019B22F495
:10480000906242F08002A281A5EB0B0203EB0B0049
:10481000656123612060A2603546B3465A46494629
:10482000FBF722FED8F80830A2682068551B5844D0
:104830009E1BA5602060C8F808601EB3083757E9C2
:104840000296AB46002EF9D0AE42B5D23546B346FD
:10485000E4E7504600F098F903460028D4D12169D6
:104860005046FFF783FE0C23CAF80030A3890022CC
:1048700043F040034FF0FF30A381C8E9012203B0A9
:10488000BDE8F08F0020C8F8040003B0BDE8F08F49
:104890002DE9F04F14468A899FB01506894602908B
:1048A00003D50A69002A00F01281059330238DF8A0
:1048B00032302378904E002120220B918DF8312048
:1048C0000127002B00F09280252B254603D118E00C
:1048D000252B00F0BD8015F8013F002BF8D1B5EB7A
:1048E000040B00F0838022465B4649460298FFF79E
:1048F000F5FE01307AD00B9B2A785B440B93002A9B
:1049000074D000234FF0FF3201350693CDE9083310
:104910008DF85B301C93079205E0069A07FA03F3C3
:10492000134355460693AA4605221AF8011B304642
:10493000FFF716F9D346831B0028EED1069BD90654
:1049400044BF20228DF85B2029781A0744BF2B2210
:104950008DF85B202A2953D0A1F13003092B00F2F6
:10496000AB80099A02E055460AF1010A9AF8001054
:1049700002EB820203EB4202A1F13003092BD34682
:10498000F1D905F1020A09922E2945D05B4C032288
:104990002046FFF7E5F8002857D0001B069A402470
:1049A00004FA00F0024306920AF101049AF800109A
:1049B00053488DF830100622FFF7D2F8002859D05E
:1049C000504B002B49D005AB00934A464E4B029802
:1049D00006A9FBF7B3FE8046B8F1FF3F06D00B9B5C
:1049E00043440B932378002B7FF46EAFB9F80C305F
:1049F0005B0654BF0B984FF0FF301FB0BDE8F08F3F
:104A0000059A11680432002905922DDB0991697815
:104A10002E2905F1020AB9D19BF801102A2933D1B8
:104A2000059B9BF802101A6807920433002A05932D
:104A30000BF102000BF1030A40DB304C83460322EA
:104A40002046FFF78DF80028A7D15446DA46ADE797
:104A5000B5EB040B3FF455AF45E7059B073323F057
:104A6000070308330593BAE7494243F0020309916B
:104A70000693CCE705AB00934A46234B029806A960
:104A8000FCF790F98046A7E7A1F130000022092841
:104A9000079201D917E0DA469AF8011002EB820278
:104AA00000EB4202A1F1300009280AF1010BF2D912
:104AB0000AF1020A079269E7AB4665E74FF0FF3259
:104AC0008346079262E7D3460AF1010A5EE7402176
:104AD0000393FFF79FFD039BC9F80000C9F810007E
:104AE00018B14022C9F81420DFE6029A0C231360A3
:104AF0004FF0FF3081E700BFECA60108F4A60108E3
:104B0000F8A601083D070008DD4600080000000087
:104B10009FED010B704700BF000000000000F87F10
:104B200038B5074C002305460846236000F0B8FA64
:104B3000431C00D038BD2368002BFBD02B6038BD50
:104B4000E03300209FED010A704700BF0000C07FE6
:104B500010B4034CD4F8E040A4465DF8044B604721
:104B60006800002021B1FF2A04D80A700120704794
:104B7000084670478A2303604FF0FF30704700BF3C
:104B8000704700BF704700BFE1B1F8B51446E2B10D
:104B900006460D4600F01EF8A04202D32F463846C6
:104BA000F8BD21463046FFF735FD07460028F6D010
:104BB00022462946FBF7BEFB30462946FFF7D6FCC6
:104BC0003846F8BD1146FFF725BDFFF7CFFC274655
:104BD000E5E700BF51F8043C181F002BBCBF0B5881
:104BE000C0187047F0B52DED028B8BB055EC104B13
:104BF00000F07AF8364BB0EE408AF0EE608A93F916
:104C00000060731C0DD022462B462046294600F03A
:104C1000ABFE30B9002200232046294600F09AFE60
:104C200038B1B0EE480AF0EE680A0BB0BDEC028B6A
:104C3000F0BD284B0890CDE90245CDE9044501932C
:104C4000B6B9254F4FF06046204629460022002382
:104C5000CDE9066700F056FE88B30223009368464C
:104C600000F01CFA98B1089BB3B99DED068BD8E70C
:104C70001A4B0022CDE906232046294600220023B4
:104C800000F040FE68B102239E420093E7D101F09C
:104C9000E1F922230360E6E701F0DCF9089B0360F9
:104CA000E3E70123022E00930BD101F0D3F9212376
:104CB00003600B48FFF72CFF8DED060BD3E70123B4
:104CC0000093684600F0EAF90028F2D1EDE700BF52
:104CD000D401002000A70108FFFFEFC70000F0FF8C
:104CE000E84E0108000000002DE9F04F51EC100BD8
:104CF000B1F5801F85B00B4680F2CE8021F00042D6
:104D0000024300F0D8800029C0F2EA800022DE4B86
:104D100000F090FBDD4A0B4693426FF0350700F33D
:104D2000C180C3F3130505F5152606F6647606F46F
:104D3000801686F07F5282F4401242EA05011C156B
:104D40000022D34B00F0BEF9AB1CA4F2FF34C3F336
:104D500013033C44022B04EB165482468B464FF05F
:104D6000000240F3B3804FF0804300F0ADF90246FB
:104D70000B465046594600F087FC064620460F4633
:104D800000F0EEFA3246CDE902013B4630463946A4
:104D9000CDE9006700F04EFB02460B46804689468F
:104DA00000F048FBA2A3D3E9002306460F4600F01B
:104DB00041FBA1A3D3E9002300F086F932463B462C
:104DC00000F038FB9EA3D3E9002300F07DF93246C2
:104DD0003B4600F02FFB9CA3D3E9002300F074F9BD
:104DE00042464B4600F026FB99A3D3E900238046B8
:104DF00089463046394600F01DFB97A3D3E90023CE
:104E000000F062F932463B4600F014FB94A3D3E96C
:104E1000002300F059F932463B4600F00BFB0B46ED
:104E200002464946404600F04FF9A5F5C223C5F5B4
:104E3000D725A3F27A4351351D43002D06460F4670
:104E400040F38F800022934B5046594600F0F2FA0F
:104E500052465B4600F0EEFA02460B468046894613
:104E60003046394600F030F9DDE9002300F0E2FA7F
:104E700006460F46002C40F08B8002460B4640460B
:104E8000494600F01FF902460B465046594600F0CD
:104E900019F941EC100B0BE07C4A93424FF00007EC
:104EA0007FF73FAF02460B4600F00EF941EC100BC6
:104EB00005B0BDE8F08F002200230020764900F005
:104EC000E3FB41EC100B05B0BDE8F08F002300F0D0
:104ED00019FD80B1002C40F084809FED630BE7E763
:104EE00010EE102A00F0EEF80022002300F0CCFBB8
:104EF00041EC100BDCE75EA3D3E900235046594692
:104F000000F098FA02460B460020624900F0DAF8F9
:104F1000524606460F465B465046594600F08AFA0E
:104F200002460B463046394600F084FA06460F46E4
:104F30002CB3204600F014FA4FA3D3E90023804697
:104F4000894600F077FA4EA3D3E9002304460D46C4
:104F50004046494600F06EFA02460B463046394656
:104F60002EE002460B465046594600F0ABF8DDE90C
:104F7000002300F05FFA06460F46002C4DD1324662
:104F80003B465046594600F09DF841EC100B8FE728
:104F900039A3D3E90023DDE9020100F04BFA38A37D
:104FA000D3E9002304460D46DDE9020100F042FA90
:104FB00032463B4600F088F802460B4640464946DA
:104FC00000F080F852465B4600F07CF802460B4643
:104FD0002046294600F076F841EC100B05B0BDE8FC
:104FE000F08F204600F0BCF923A3D3E90023064646
:104FF0000F4600F01FFA22A3D3E9002304460D4612
:105000003046394600F016FA02460B46204629463D
:1050100000F05AF841EC100B4AE7DDE9028916A3CB
:10502000D3E90023404649468BE700BFAFF3008039
:1050300044523EDF12F1C23FDE03CB966446C73FC7
:10504000599322942449D23F935555555555E53FE0
:105050009FC678D0099AC33FAF788E1DC571CC3FEB
:1050600004FA97999999D93F0000000000000000C8
:10507000555555555555D53F0000E0FE422EE63FAB
:10508000763C7935EF39EA3D00005043FFFFEF7F72
:105090000000F03F0000E03F000050C300207047D8
:1050A000044A05491368002B08BF0B4618441060DA
:1050B00018467047A4030020E833002081F0004127
:1050C00002E000BF83F0004330B54FEA41044FEAED
:1050D000430594EA050F08BF90EA020F1FBF54EA88
:1050E000000C55EA020C7FEA645C7FEA655C00F024
:1050F000E2804FEA5454D4EB5555B8BF6D420CDDF5
:105100002C4480EA020281EA030382EA000083EA77
:10511000010180EA020281EA0303362D88BF30BD17
:1051200011F0004F4FEA01314FF4801C4CEA11316D
:1051300002D0404261EB410113F0004F4FEA0333CC
:105140004CEA133302D0524263EB430394EA050F57
:1051500000F0A780A4F10104D5F1200E0DDB02FAC6
:105160000EFC22FA05F2801841F1000103FA0EF25A
:10517000801843FA05F359410EE0A5F120050EF120
:10518000200E012A03FA0EFC28BF4CF0020C43FA51
:1051900005F3C01851EBE37101F0004507D54FF05E
:1051A000000EDCF1000C7EEB00006EEB0101B1F5AE
:1051B000801F1BD3B1F5001F0CD349085FEA3000F4
:1051C0004FEA3C0C04F101044FEA445212F5800FFF
:1051D00080F09A80BCF1004F08BF5FEA500C50F19C
:1051E000000041EB045141EA050130BD5FEA4C0C7F
:1051F000404141EB010111F4801FA4F10104E9D108
:1052000091F0000F04BF01460020B1FA81F308BFFE
:105210002033A3F10B03B3F120020CDA0C3208DDCA
:1052200002F1140CC2F10C0201FA0CF021FA02F1A5
:105230000CE002F11402D8BFC2F1200C01FA02F115
:1052400020FA0CFCDCBF41EA0C019040E41AA2BF3A
:1052500001EB0451294330BD6FEA04041F3C1CDA02
:105260000C340EDC04F11404C4F1200220FA04F022
:1052700001FA02F340EA030021FA04F345EA0301CC
:1052800030BDC4F10C04C4F1200220FA02F001FA8E
:1052900004F340EA0300294630BD21FA04F0294610
:1052A00030BD94F0000F83F4801306BF81F48011A9
:1052B0000134013D4EE77FEA645C18BF7FEA655C1C
:1052C00029D094EA050F08BF90EA020F05D054EAEE
:1052D000000C04BF1946104630BD91EA030F1EBFF3
:1052E0000021002030BD5FEA545C05D140004941F7
:1052F00028BF41F0004130BD14F580043CBF01F5EA
:10530000801130BD01F0004545F0FE4141F47001CF
:105310004FF0000030BD7FEA645C1ABF19461046AA
:105320007FEA655C1CBF0B46024650EA013406BFAB
:1053300052EA033591EA030F41F4002130BD00BF6A
:1053400090F0000F04BF0021704730B54FF4806427
:1053500004F132044FF000054FF0000150E700BFA8
:1053600090F0000F04BF0021704730B54FF4806407
:1053700004F1320410F0004548BF40424FF00001F4
:105380003EE700BF42004FEAE2014FEA31014FEA37
:1053900002701FBF12F07F4393F07F4F81F0605186
:1053A000704732F07F4208BF704793F07F4F04BFD1
:1053B00041F40021704730B54FF4607401F00045AE
:1053C00021F000411CE700BF50EA010208BF70470E
:1053D00030B54FF000050AE050EA010208BF7047FF
:1053E00030B511F0004502D5404261EB41014FF468
:1053F000806404F132045FEA915C3FF4D8AE4FF070
:1054000003025FEADC0C18BF03325FEADC0C18BF52
:10541000033202EBDC02C2F1200300FA03FC20FAA3
:1054200002F001FA03FE40EA0E0021FA02F11444F0
:10543000BDE600BF70B54FF0FF0C4CF4E06C1CEA09
:1054400011541DBF1CEA135594EA0C0F95EA0C0F7A
:1054500000F0DEF82C4481EA030621EA4C5123EAED
:105460004C5350EA013518BF52EA033541F480111C
:1054700043F4801338D0A0FB02CE4FF00005E1FBCF
:1054800002E506F00042E0FB03E54FF00006E1FB19
:1054900003569CF0000F18BF4EF0010EA4F1FF045C
:1054A000B6F5007F64F5407404D25FEA4E0E6D419C
:1054B00046EB060642EAC62141EA55514FEAC520AD
:1054C00040EA5E504FEACE2EB4F1FD0C88BFBCF529
:1054D000E06F1ED8BEF1004F08BF5FEA500E50F1DA
:1054E000000041EB045170BD06F0004646EA0101A0
:1054F00040EA020081EA0301B4EB5C04C2BFD4EBD2
:105500000C0541EA045170BD41F480114FF0000ECA
:10551000013C00F3AB8014F1360FDEBF002001F038
:10552000004170BDC4F10004203C35DA0C341BDCB2
:1055300004F11404C4F1200500FA05F320FA04F084
:1055400001FA05F240EA020001F0004221F00041B8
:1055500010EBD37021FA04F642EB06015EEA430E2B
:1055600008BF20EAD37070BDC4F10C04C4F120055B
:1055700000FA04F320FA05F001FA04F240EA02000E
:1055800001F0004110EBD37041F100015EEA430EDF
:1055900008BF20EAD37070BDC4F1200500FA05F2FF
:1055A0004EEA020E20FA04F301FA05F243EA02037E
:1055B00021FA04F001F0004121FA04F220EA02008D
:1055C00000EBD3705EEA430E08BF20EAD37070BDD3
:1055D00094F0000F0FD101F00046400041EB0101B3
:1055E00011F4801F08BF013CF7D041EA060195F095
:1055F000000F18BF704703F00046520043EB03034F
:1056000013F4801F08BF013DF7D043EA060370473B
:1056100094EA0C0F0CEA135518BF95EA0C0F0CD046
:1056200050EA410618BF52EA4306D1D181EA03018C
:1056300001F000414FF0000070BD50EA410606BF86
:105640001046194652EA430619D094EA0C0F02D1CB
:1056500050EA013613D195EA0C0F05D152EA033610
:105660001CBF104619460AD181EA030101F000412E
:1056700041F0FE4141F470014FF0000070BD41F077
:10568000FE4141F4780170BD70B54FF0FF0C4CF451
:10569000E06C1CEA11541DBF1CEA135594EA0C0F70
:1056A00095EA0C0F00F0A7F8A4EB050481EA030EBD
:1056B00052EA03354FEA013100F088804FEA0333A4
:1056C0004FF0805545EA131343EA12634FEA022272
:1056D00045EA111545EA10654FEA00260EF0004133
:1056E0009D4208BF964244F1FD0404F5407402D285
:1056F0005B084FEA3202B61A65EB03055B084FEA16
:1057000032024FF480104FF4002CB6EB020E75EB12
:10571000030E22BFB61A754640EA0C005B084FEA3A
:105720003202B6EB020E75EB030E22BFB61A7546B7
:1057300040EA5C005B084FEA3202B6EB020E75EB02
:10574000030E22BFB61A754640EA9C005B084FEA7A
:105750003202B6EB020E75EB030E22BFB61A754687
:1057600040EADC0055EA060E18D04FEA051545EA76
:1057700016754FEA06164FEAC30343EA52734FEA1F
:10578000C2025FEA1C1CC0D111F4801F0BD141EA98
:1057900000014FF000004FF0004CB6E711F4801FFD
:1057A00004BF01430020B4F1FD0C88BFBCF5E06FDD
:1057B0003FF6AFAEB5EB030C04BFB6EB020C5FEAED
:1057C000500C50F1000041EB045170BD0EF0004E42
:1057D0004EEA113114EB5C04C2BFD4EB0C0541EA74
:1057E000045170BD41F480114FF0000E013C90E671
:1057F00045EA060E8DE60CEA135594EA0C0F08BF35
:1058000095EA0C0F3FF43BAF94EA0C0F0AD150EA33
:1058100001347FF434AF95EA0C0F7FF425AF1046C6
:1058200019462CE795EA0C0F06D152EA03353FF4EE
:10583000FDAE1046194622E750EA410618BF52EA6B
:1058400043067FF4C5AE50EA41047FF40DAF52EA3F
:1058500043057FF4EBAE12E74FF0FF3C06E000BFDC
:105860004FF0010C02E000BF4FF0010C4DF804CDE9
:105870004FEA410C7FEA6C5C4FEA430C18BF7FEAA9
:105880006C5C1BD001B050EA410C0CBF52EA430CD7
:1058900091EA030F02BF90EA020F0020704710F157
:1058A000000F91EA030F58BF994208BF90422CBFE6
:1058B000D8176FEAE37040F0010070474FEA410CDF
:1058C0007FEA6C5C02D150EA013C07D14FEA430CFD
:1058D0007FEA6C5CD6D152EA033CD3D05DF8040B6E
:1058E000704700BF8446104662468C4619466346A0
:1058F00000E000BF01B5FFF7B7FF002848BF10F177
:10590000000F01BD4DF808EDFFF7F4FF0CBF0120BB
:1059100000205DF808FB00BF4DF808EDFFF7EAFF37
:1059200034BF012000205DF808FB00BF4DF808EDF2
:10593000FFF7E0FF94BF012000205DF808FB00BFE7
:105940004DF808EDFFF7CEFF94BF012000205DF871
:1059500008FB00BF4DF808EDFFF7C4FF34BF01207E
:1059600000205DF808FB00BF4FEA410C7FEA6C5C49
:1059700002D150EA013C0AD14FEA430C7FEA6C5C49
:1059800002D152EA033C02D14FF0000070474FF0C1
:10599000010070474FEA410212F5001215D211D5ED
:1059A0006FF47873B3EB625212D94FEAC12343F01C
:1059B000004343EA505311F0004F23FA02F018BF9E
:1059C000404270474FF00000704750EA013005D167
:1059D00011F0004008BF6FF0004070474FF000002A
:1059E000704700BF4A0011D212F5001211D20DD536
:1059F0006FF47873B3EB62520ED44FEAC12343F0D5
:105A0000004343EA505323FA02F070474FF000007E
:105A1000704750EA013002D14FF0FF3070474FF02D
:105A2000000070474FEA4102B2F1E04324BFB3F5F2
:105A3000001CDCF1FE5C0DD901F0004C4FEAC00205
:105A40004CEA5070B2F1004F40EB830008BF20F0E9
:105A50000100704711F0804F21D113F13872BCBFA3
:105A600001F00040704741F480114FEA5252C2F1F8
:105A70001802C2F1200C10FA0CF320FA02F018BF41
:105A800040F001004FEAC1234FEAD32303FA0CFC94
:105A900040EA0C0023FA02F34FEA4303CCE77FEA23
:105AA000625307D150EA01331EBF4FF0FE4040F46D
:105AB0004000704701F0004040F0FE4040F400001C
:105AC000704700BF80F0004002E000BF81F000415D
:105AD00042001FBF5FEA410392EA030F7FEA226C94
:105AE0007FEA236C6AD04FEA1262D2EB1363C1BF24
:105AF000D218414048404140B8BF5B42192B88BF93
